:020000040800F2
:1000000000A000202D4E0008754E0008754E000817
:10001000754E0008754E0008754E0008000000007F
:10002000000000000000000000000000754E000805
:10003000754E000800000000754E0008754E00085F
:1000400000000000000000000000000000000000B0
:1000500000000000000000000000000000000000A0
:100060000000000000000000000000000000000090
:100070000000000000000000000000000000000080
:100080000000000000000000000000000000000070
:100090000000000000000000000000000000000060
:1000A0000000000000000000000000000000000050
:1000B0000000000000000000000000000000000040
:1000C0000000000000000000000000000000000030
:1000D0000000000000000000000000000000000020
:1000E0000000000000000000000000000000000010
:1000F0000000000000000000000000000000000000
:1001000000000000000000000000000000000000EF
:1001100000000000000000000000000000000000DF
:1001200000000000000000000000000000000000CF
:1001300000000000000000000000000000000000BF
:1001400000000000000000000000000000000000AF
:10015000000000000000000000000000000000009F
:10016000000000000000000000000000000000008F
:10017000000000000000000000000000000000007F
:08018000000000000000000077
:100190000348044B834202D0034B03B11847704716
:1001A0007C0000207C000020000000000548064B79
:1001B0001B1AD90F01EBA301491002D0034B03B165
:1001C000184770477C0000207C00002000000000E1
:1001D00010B5064C237843B9FFF7DAFF044B13B18F
:1001E0000448AFF300800123237010BD7C00002081
:1001F00000000000784E000808B5044B1BB104490C
:100200000448AFF30080BDE80840CFE700000000DD
:1002100080000020784E000838B5124B1D682A6B0C
:1002200004461AB10023C2E9044338BD182000F087
:10023000B3F90246286378B101200021C2E9040124
:10024000094B0A480A499160C2E900030B239381D4
:100250000023C2E9044338BD064B0748462100F09D
:1002600053F800BF2000002034126DE60E33CDABF2
:10027000ECDE0500CC500008E450000838B5194BFE
:100280001C68226B8AB1136917495469174803FB2C
:1002900001F100FB0411A3FB0030013341EB00012D
:1002A000C2E9043121F0004038BD182000F074F993
:1002B0000246206388B101240025C2E904450C4BA5
:1002C0000C4C09480C499160C2E900430B2393810F
:1002D0000A4B0146C2E9043138BD094B0948522195
:1002E00000F012F8200000202DF451582D7F954C7D
:1002F00034126DE60E33CDABECDE05002E7F954C4F
:10030000CC500008E450000800B50B4C256814469A
:10031000EE681A4685B003460D464CB10749009574
:10032000CDE901143046064900F054F900F03AF8DE
:1003300004490C46F3E700BF2000002010510008DC
:10034000205100081C51000808B513460022FFF791
:10035000DBFF00BF70B50F4B0F4DAB42A3EB0506A3
:1003600007D0B610002455F8043B01349847A64244
:10037000F9D804F081FD094D094B5E1BAB424FEAF1
:10038000A60606D0002455F8043B01349847A6423F
:10039000F9D870BD94510008945100089451000898
:1003A0009851000808B5062000F006FD012001F074
:1003B00065FD00BF830730B547D0541E002A3ED0EC
:1003C000CAB2034601E0013C39D303F8012B9D0773
:1003D000F9D1032C2CD9CDB205EB05250F2C05EB5B
:1003E000054535D9A4F1100222F00F0C03F1100ECF
:1003F000E6444FEA121C1A46C2E90055C2E902550A
:1004000010327245F8D10CF1010214F00C0F03EB1D
:10041000021204F00F0C13D0ACF1040323F0030319
:100420000433134442F8045B9342FBD10CF0030401
:100430002CB1C9B21C4403F8011BA342FBD130BD4F
:1004400064461346002CF4D1F9E703461446C0E78E
:100450001A46A446E0E700BF014B1868704700BF8A
:1004600020000020844641EA000313F003036DD10D
:10047000403A41D351F8043B40F8043B51F8043B67
:1004800040F8043B51F8043B40F8043B51F8043B6E
:1004900040F8043B51F8043B40F8043B51F8043B5E
:1004A00040F8043B51F8043B40F8043B51F8043B4E
:1004B00040F8043B51F8043B40F8043B51F8043B3E
:1004C00040F8043B51F8043B40F8043B51F8043B2E
:1004D00040F8043B51F8043B40F8043B51F8043B1E
:1004E00040F8043B51F8043B40F8043B51F8043B0E
:1004F00040F8043B403ABDD2303211D351F8043BAE
:1005000040F8043B51F8043B40F8043B51F8043BED
:1005100040F8043B51F8043B40F8043B103AEDD25C
:100520000C3205D351F8043B40F8043B043AF9D2AD
:10053000043208D0D2071CBF11F8013B00F8013B80
:1005400001D30B8803806046704700BF082A13D38D
:100550008B078DD010F003038AD0C3F10403D21AA5
:10056000DB071CBF11F8013B00F8013B80D331F8D9
:10057000023B20F8023B7BE7043AD9D3013A11F859
:10058000013B00F8013BF9D20B7803704B784370C4
:100590008B78837060467047024B0146186800F004
:1005A000A9BE00BF20000020024B0146186800F0E1
:1005B00021BF00BF200000200CB400B583B004AB05
:1005C00053F8042B019300F055F803B05DF804EBE9
:1005D00002B070470EB410B583B005AB064C53F8AB
:1005E000042B01930146206800F044F803B0BDE8F5
:1005F000104003B0704700BF200000209368013B0B
:10060000002B936005DAD2F818C0634507DB0A298E
:1006100005D01368581C106019700846704700F028
:100620006BB900BF9BB1F8B5134406460F46541E84
:100630005D1E01E0AC4208D014F8011F3A46304676
:10064000FFF7DCFF431CF5D1F8BD0020F8BD00200A
:10065000704700BF936810B514461BB918460023B5
:10066000636010BD00F098F90023A360002363606D
:1006700010BD00BF2DE9F04FA1B08B4691461C463E
:10068000049018B1036A002B00F01C81BBF80C30F9
:10069000180740F19580DBF81030002B00F09080B7
:1006A0000023CA460D9343F22003ADF839309AF87F
:1006B0000030864E07940127002B79D0D14604E004
:1006C00019F8013F002B00F08580252BF8D1B9EBFC
:1006D0000A0840F0828099F80030002B68D000238F
:1006E0004FF0FF32CDE9092309F1010908930B937B
:1006F0008DF863301E9305E0089A07FA03F31A4356
:100700000892A1464C46052214F8011B304600F021
:1007100077FFA246831B0028EED1089BD90644BF71
:1007200020228DF8632099F800101A0744BF2B226D
:100730008DF863202A2966D1079A116804320029AE
:100740000792C0F29A800B9199F801102E2970D06F
:100750005F4C0322204600F053FF38B1089B001B7A
:100760004022824013430AF1010A08931AF8011B40
:1007700058488DF83810062200F042FF002800F09B
:100780008280554B002B69D007AA0092534B0498E6
:100790005A4608A9AFF300800390039B013307D0AA
:1007A0000D9B039A13440D939AF80030002B85D1CA
:1007B000BBF80C305B060AD40D9821B0BDE8F08F71
:1007C0000498594600F06CFF00283FF469AF4FF0E1
:1007D000FF30F2E7B9EB0A08EAD00AF1FF35CDF8AD
:1007E0001490A946049D01E0A0453ED94C465A46C6
:1007F00019F8011F2846FFF701FF02340130A4EB6E
:100800000A04F1D1D4E7A1F13002092A88BFCA460F
:100810009CD80B9B00E00134217803EB830302EBAF
:100820004303A1F13002092AF5D92E290B93A246E0
:100830008ED19AF801102A292FD1079B9AF802101D
:100840001A6809920433002A0AF102000793B8BF1C
:100850004FF0FF338246B8BF099379E7079B073310
:1008600023F00703083307939AE70D99DDF81490F6
:10087000414499F800300D912FE7494243F00203BB
:100880000B91089360E707AA0092144B04985A460C
:1008900008A901F02BF803907FE7A1F130020023B3
:1008A000092A09930AF1010A3FF652AF1AF8011F0B
:1008B00003EB830302EB4303A1F13002092AF5D9CC
:1008C000099345E700F0FEFBE0E600BF5051000849
:1008D000585100085C51000800000000250600087F
:1008E00010B4044C84461346206810BC0A46614686
:1008F000FFF7C0BE20000020F8B50D46144606469E
:1009000010B1036A002B37D0A389A269A2601A072D
:1009100019D52369BBB122686169D31AEDB2994236
:100920002F4620DD0133A1680139A160511C2160EF
:10093000157062699A420DD0A389DB0701D50A2D93
:1009400008D03846F8BD2146304600F0A9FE38B937
:100950002369E0E72146304600F066FC0028F0D02D
:100960004FF0FF37EDE72146304600F05DFC0028F0
:10097000F6D122680123D6E700F0A4FBC4E700BF4C
:1009800010B4044C03460A46206810BC1946FFF711
:10099000B3BF00BF200000209368002B00F0F6805A
:1009A0002DE9F04FB1F90CC01CF0080F83B0904650
:1009B00081460C4631D00B697BB31CF00207D8F896
:1009C000006038D00027D4F828B0216ADFF8BCA234
:1009D0003D4655452B463A4628BF53464846C5B185
:1009E000D847002840F3C880D8F808301B1A0744BD
:1009F0002D1AC8F80830002B00F0B48055452B465E
:100A0000D4F828B0216A28BF53463A464846002DFC
:100A1000E6D1D6E900750836DBE72146484600F006
:100A20003FFE002840F0AD80B4F90CC0D8F800605B
:100A30001CF00207C6D11CF0010A63D12368A1682B
:100A4000574618468B46002F58D01CF4007F00F004
:100A5000B180B9420A4600F2DD801CF4906F2FD0BD
:100A6000216962695D1A02EB420202EBD2726B1CD1
:100A700052103B44934292BF93469B461A461CF445
:100A8000806F00F0E6801146484600F033FC0028F5
:100A900000F0F5802A4621690190FFF7E3FCA28966
:100AA000019B22F4906242F08002A2815819ABEBC4
:100AB0000505C4F814B02361A5602060BB463A4622
:100AC0005146019200F0F4FCA1682368019AA1EB61
:100AD0000B011A443D46A16022600027D8F8083077
:100AE0005B1BAA44C8F80830002B3BD02368A168E0
:100AF000B4F90CC018468B46002FA6D1D6E900A742
:100B000008369EE73846BB463D46002D40D00028BB
:100B100045D03A46D4E904C32068A168AA4228BF58
:100B20002A46604504D901EB030A524500F382804E
:100B3000934272DC216AD4F828C05A464846E047FE
:100B4000B0F1000A18DDB7EB0A070FD00120D8F882
:100B50000830A3EB0A03D344A5EB0A05C8F8083014
:100B6000002BD2D1002003B0BDE8F08F21464846CB
:100B700000F05AFB0028EAD0B4F90C3043F04003EF
:100B8000A3814FF0FF3003B0BDE8F08F0020704725
:100B9000756833460836002DFAD0D3F800B02A46DF
:100BA0000A21584600F02CFD002865D00130A0EB4A
:100BB0000B07AEE722699A4214D36269BA4211D890
:100BC0006FF00043BB4228BF3B46A56A93FBF2F39C
:100BD000216A02FB03F348465246A847051ECBDDB7
:100BE0007F1B7BE7B94228BF39460D4618460A46A7
:100BF000514600F05DFCA1682368491B2B44A160AD
:100C000023600029ECD12146484600F00DFB002866
:100C1000E6D0B1E7BB463A4652E75946019200F0AA
:100C200047FC019AA3689B1AA360236813442360BE
:100C3000924688E75946524600F03AFC23685344EE
:100C400023602146484600F0EFFA00283FF47BAFCE
:100C500092E7484600F086FD034600287FF426AF61
:100C60002169484600F0C6FBB4F90C300C22C9F8E3
:100C7000002023F0800381E76A1C17464AE70C2214
:100C8000B4F90C30C9F8002078E700BF00FCFF7F02
:100C900038B5C46B0CB1002038BD8021054600F08A
:100CA00029FB0246E86330B1031F7C3243F8044F4E
:100CB0009342FBD1EFE74FF0FF3038BD30B51F292D
:100CC00083B0054608D8C36B0C4653B153F82400D3
:100CD00043F8242003B030BD162303604FF0FF30EB
:100CE000F8E78021019200F005FB019AE8630346D2
:100CF0000028F3D0011F00F17C05002041F8040F0B
:100D0000A942FBD1E2E700BF1F2938B505461ED82E
:100D1000C26B0C466AB152F8213053B1012B06D098
:100D2000591C10D0002142F824102046984700207A
:100D300038BD284601F036F8224601462846BDE86F
:100D4000384001F019B816230360012038BD16237E
:100D500003604FF0FF3038BD1F292AD838B5C36B68
:100D60000C460546A3B153F8242003EB84034AB193
:100D7000511C0BD0012A07D0002520461D6090474A
:100D8000284638BD012038BD032038BD022038BDBB
:100D9000802100F0AFFA0346E86338B1021F00215A
:100DA0007C3042F8041F8242FBD1DCE74FF0FF3079
:100DB00038BD4FF0FF30704738B5134B1F281D6802
:100DC0001DD8EA6B044662B152F820304BB1012BBA
:100DD00005D0591C0FD0002142F820109847002060
:100DE00038BD284600F0DEFF224601462846BDE811
:100DF000384000F0C1BF16232B60012038BD1623F8
:100E00002B604FF0FF3038BD20000020114B1F2811
:100E100070B51E6808D8F36B04460D464BB153F805
:100E2000240043F8245070BD162333604FF0FF3088
:100E300070BD8021304600F05DFA0346F063002863
:100E4000F4D0021F00217C3042F8041F8242FBD103
:100E5000E5E700BF2000002038B50B4B1D68EC6BA8
:100E60000CB1002038BD8021284600F043FAE86329
:100E700038B1031F00F17C0243F8044F9342FBD1C9
:100E8000EFE74FF0FF3038BD2000002038B5174B9A
:100E90001F281D6826D80446E86BA0B150F82430FE
:100EA00000EB84004BB15A1C0BD0012B07D000255E
:100EB000056020469847284638BD012038BD0320EC
:100EC00038BD022038BD8021284600F013FAE863BF
:100ED00040B1031F00F17C01002243F8042F8B4234
:100EE000FBD1DBE74FF0FF3038BD00BF2000002012
:100EF00000207047024A0349034800F059BB00BF75
:100F00007000002029120008240000200C4B4168CA
:100F1000994210B5044601D000F086F9A168094B4A
:100F2000994202D0204600F07FF9E168064B9942D1
:100F300004D02046BDE8104000F076B910BD00BFD7
:100F4000D827002040280020A82800200020704733
:100F50002DE9F8432A4C2B49DFF8AC90DFF8AC8040
:100F60002B4FC4F83811002504230822294604F128
:100F70005C00284EE360C4E90055C4E90455A5604F
:100F80006566A561FFF716FA234B636708222946B9
:100F900004F1C400C4E90849C4E90A87C4E91A5540
:100FA000C4E91E552567C4F8CC50C4F880502663A8
:100FB000FFF700FA194BC4F8DC30294604F1680346
:100FC000082204F59670C4F88830C4E92398C4E96F
:100FD0002576C4E93455C4E93855C4F8D850C4F866
:100FE0003451C4F8E850FFF7E5F904F1D003C4E93F
:100FF0003D98C4E93F76C4F8F030BDE8F88300BFFF
:10100000D8270020F50E0008D51C0008FD1C00089C
:101010003D1D0008611D00080900010012000200CA
:10102000F8B5254BD3F838310646002B3CD0234F7A
:10103000D7E90134013B04D51DE05A1C04F16804D2
:1010400019D0B4F90C50013B002DF6D11C4BE360D4
:10105000C4E90155C4E9045565662560A561082207
:10106000294604F15C00FFF7A5F9C4E90D55C4E970
:1010700012552046F8BD3D680DB12F46D8E74FF414
:10108000D671304600F036F9044680B10423C0E939
:1010900000530C302946A0604FF4D0722546FFF76C
:1010A00089F93C602F46C3E7FFF752FFBFE70C23E7
:1010B00038603360DDE700BFD827002070000020D3
:1010C0000100FFFF036A03B17047044B044AD3F8E1
:1010D00038310262002BF7D13AE700BFD827002051
:1010E0000D0F0008704700BF704700BF024A034958
:1010F000002000F05DBA00BF70000020F10E000873
:10110000024A0349002000F053BA00BF70000020DB
:101110004D0F0008F8B5B1F90C301E070C46074614
:1011200039D44A68002A53DDE56A002D31D0002207
:101130003E683A6013F48052216A55D10123384643
:10114000A847451C024663D0B4F90C30E56A216A11
:10115000580705D56368D21A636B0BB1236CD21A9A
:1011600000233846A847421C40D00023636023690F
:101170002360A389DB0400D56065616B3E6041B1EB
:1011800004F14403994202D0384600F033F90023B9
:1011900063630020F8BD0E69002EFAD09B070D682E
:1011A00008BF4B690E6018BF0023AD1B8B600CE0BD
:1011B000D4F828C0216A2B4632463846E047B0F1C1
:1011C000000CA5EB0C05664406DD002DF0DCE0E725
:1011D0000A6C002AA8DCDCE7B4F90C3043F04003C9
:1011E000A3814FF0FF30F8BD626DB1E73968B4F903
:1011F0000C301D29F2D80B4ACA40D507EED522691A
:10120000226000226260DA04B7D50029B4D0B4E7C6
:101210003B68002B98D01D2B01D0162BDCD13E60F3
:10122000B7E700BF010040200B69B3B110B5044619
:1012300082B008B1036A5BB1B1F90C3013B9002078
:1012400002B010BD204602B0BDE81040FFF762BFFB
:101250000191FFF737FF0199EEE70020704700BFCB
:10126000B8B138B50D4A0369156804462BB10DB104
:101270002B6A53B1B4F90C300BB9002038BD2146AC
:101280002846BDE83840FFF745BF2846FFF71AFF5C
:10129000F0E7034A0349044800F08AB9200000201F
:1012A00070000020291200082400002070B5104EA4
:1012B000336805460C46B3B12146284600F0F8FCD9
:1012C000431C0CD0C41C24F00304A04205D0211AF6
:1012D000284600F0EDFC013001D0204670BD4FF0F3
:1012E000FF34204670BD194600F0E2FC3060E3E7B1
:1012F000142900202DE9F843CD1C25F003050835FD
:101300000C2D38BF0C25002D064618DBA94216D837
:10131000DFF8DC8000F02CFCD8F80420A2B11446E1
:1013200003E0636822467BB11C4623685B1BF8D44C
:101330000B2B1FD89442636854D053600CE00C23ED
:1013400033600020BDE8F88329463046FFF7AEFF42
:10135000431C044619D00560304600F00BFC04F134
:101360000B00231D20F00700C21A1CBF1B1AA3503C
:10137000BDE8F88361199442256014BF5160C8F834
:101380000410635163684B60E6E7D8F804701FB33C
:101390003C467F68002FFBD123683946304604EB7A
:1013A000030900F085FC814516D12368ED1A294612
:1013B0003046FFF77BFF01300ED02368D8F80420B9
:1013C0002B442360536883B1A34203D01A465B6861
:1013D0009C42FBD10023B0E70C233360304600F081
:1013E000C9FBAEE7C8F80430B6E7C8F80470B3E745
:1013F00014290020002950D038B551F8043C0C1FA6
:10140000002BB8BFE418054600F0B2FB274A13686A
:101410002BB1A3420CD92168601883422CD06360A1
:1014200028461460BDE8384000F0A4BBA3420FD8A2
:101430001A465B68002BF9D111685018844217D006
:101440002CD3636054602846BDE8384000F092BB5E
:1014500011685018A04214D020D821686018834227
:10146000EFD118685B680844C4E900035460EAE7F8
:1014700023680B441360E6E718685B680844206043
:10148000CDE720680144501883421160DBD1D3E9D5
:1014900000040144C2E90014D5E770470C232B6017
:1014A0002846BDE8384000F065BB00BF1829002081
:1014B00088420ED98B1883420BD900EB020C002A0C
:1014C0006ED0624613F801CD02F801CD9942F9D1F0
:1014D00070470F2A0FD8034602F1FF3C002A5FD065
:1014E0000CF1010C013B8C4411F8012B03F8012F86
:1014F0006145F9D1704740EA01039B0751D1A2F140
:10150000100370B501F1200C23F00F0501F1100E4E
:1015100000F11004AC441B095EF8105C44F8105C48
:101520005EF80C5C44F80C5C5EF8085C44F8085CFF
:101530005EF8045C44F8045C0EF1100EE64504F11C
:101540001004E9D1013312F00C0F01EB031102F08A
:101550000F0400EB031328D0043C24F003064FEAE9
:10156000940C1E441C1F8E465EF8045B44F8045F16
:10157000B442F9D10CF1010402F0030203EB84033D
:1015800001EB840102F1FF3C4AB10CF1010C013B7B
:101590008C4411F8012B03F8012F6145F9D170BD7E
:1015A000704702F1FF3C03469AE72246EAE700BF94
:1015B0002DE9F8430746884616464FF00009D6E95C
:1015C0000154013D10D4A389012B08D9B4F90E3080
:1015D00001332146384602D0C04749EA0009013D9F
:1015E0006B1C04F16804EED13668002EE7D1484642
:1015F000BDE8F883000000000000000000000000CB
:1016000001F0FF01102A2BDB10F0070F08D010F8B3
:10161000013B013A8B422DD010F0070F42B3F6D1B7
:10162000F0B441EA012141EA014122F007047FF0D0
:1016300000070023F0E80256083C85EA010586EA27
:10164000010685FA47F5A3FA87F586FA47F6A5FA63
:1016500087F68EB9EED1F0BC01F0FF0102F007026F
:1016600032B110F8013B013A83EA010313B1F8D11A
:101670000020704701387047002D06BF35460338FB
:10168000073815F0010F07D1013015F4807F02BF34
:10169000013015F4C03F0130F0BC0138704700BF85
:1016A00038B52F4B1B6805460C4613B11A6A002A41
:1016B0004BD0B4F90C3018071CD5226922B313F0B3
:1016C000010107D0616900204942A060A1613AB1DF
:1016D000002038BD980758BF6169A160002AF7D182
:1016E000190658BF1046F4D543F04003A3814FF0CC
:1016F000FF3038BDD9062CD55A0712D4226943F0E1
:101700000803A381002ADAD103F42071B1F5007F28
:10171000D5D02146284600F02FFAB4F90C302269C2
:10172000CDE7616B51B104F14402914204D02846E7
:10173000FFF760FEB4F90C300022626322690021D9
:10174000C4E9002123F02403D9E71846FFF7BAFCC7
:10175000AFE7092243F040032A60A381C7E700BF37
:10176000200000202DE9F041144641B30AB306469B
:101770000D4600F0F9FA8442074602D8B4EB500F48
:1017800013D821463046FFF7B5FD804650B1BC4224
:101790002246294628BF3A46FEF764FE29463046CF
:1017A000FFF728FE4046BDE8F081A8464046BDE868
:1017B000F081A046FFF71EFE4046BDE8F081BDE87F
:1017C000F0411146FFF796BD2DE9F84F92461F46AE
:1017D0000A698B68DDF828909A42B8BF1A46CAF8A1
:1017E000002091F843300C46064613B10132CAF886
:1017F0000020226891065FD5DAF800300233CAF87B
:101800000030226812F0060F11461DD1E16899429E
:10181000D8BF114618DD4FF0000804F1190B05E0A0
:10182000E568DAF80030ED1A45450CDD01235A462B
:1018300039463046C847013008F10108F0D14FF071
:10184000FF30BDE8F88F216894F84330003B18BFA3
:1018500001238A060AD5E1185A1C302081F843007A
:10186000224494F8451082F84310023304F14302F5
:1018700039463046C8470130E1D02368DAF80050D5
:10188000216903F00603042BD4E902201BD08A420D
:1018900020DD4FF00008521A90441A34002501E070
:1018A000454517DA0123224639463046C8470130FC
:1018B00005F10105F4D1C2E712F0060F0DD0003B8F
:1018C00018BF0123D2E7401B8A4220EAE078E2DC1D
:1018D0000028E2DC0020BDE8F88FE168DAF800308B
:1018E0009942D8BF114696DCAEE700BF2DE9F0471C
:1018F000174684B00A7E0C9D0C460646984601F1B8
:10190000430C002A35D0A2F15803D9B2202969D856
:10191000202B67D8DFE813F0E6006600660066005B
:101920006600660066006600660066006600AC0041
:101930007000660066006600660070006600660063
:101940006600660021008300C60066006600B600DF
:101950006600830066006600EC002B6822686169FF
:10196000181D286010061B6802D4520600F1E080A2
:1019700019600023E1462361CDF800803B4603AAAD
:1019800021463046FFF720FF013020D023694A4628
:1019900039463046C047013019D02368E068DDF889
:1019A0000C909B0718D5484516DD002504F1190A4F
:1019B00004E0E068A0EB0903AB420DDD01235246D1
:1019C00039463046C047013005F10105F1D14FF0ED
:1019D000FF3004B0BDE8F0874845B8BF484604B0C2
:1019E000BDE8F08784F84220012004F14209002379
:1019F000206184F84330BFE72A682368111D180668
:101A0000296002D4590600F195801068014600282B
:101A10006268C0F2938054484FF00A0E15E02068C7
:101A20002B6810F0800F53F8041B02D1400648BF0A
:101A300089B26F2A4C482B6014BF4FF00A0E4FF04A
:101A4000080E0023626884F84330002AA26051DB4C
:101A5000236823F00403236000294BD1002A7BD1A3
:101A6000E146BEF1080F56D0ACEB0903236183E7D2
:101A70002B681A6804332B6004F1420984F8422071
:101A80000120B4E72B686268191D2960D3F8009023
:101A900000214846FFF7B4FD002863D0A0EB090001
:101AA0006060A4E7236843F02003236078222F4876
:101AB00084F845202A6813F0800F52F8041B03D1E4
:101AC00013F0400F18BF89B22A60DA0744BF43F011
:101AD0002003236019B9236823F0200323604FF00B
:101AE000100EAEE7582384F845301F482368E1E71D
:101AF0002368DBE77546E146B1FBF5F305FB131AF6
:101B00000A46AA4210F80A1009F8011D1946F3D234
:101B1000BEF1080FA8D12368DD07A5D56268236947
:101B20009A42A1DC302309F8013C09F1FF399BE717
:101B300019801EE7B2F90010084668E72D20002A38
:101B4000A26084F8430002DB23F0040323600A252B
:101B500005484942AE46CEE7037884F8423004F1A6
:101B600042097EE7606842E7645100087851000846
:101B7000704700BF704700BF70B5B1F90C300C461C
:101B8000990796B007D504F147030122C4E904324E
:101B9000236016B070BDB4F90E100029054629DB8C
:101BA0006A4600F029F9002822DB4FF480612846BC
:101BB000019EFFF79FFB88B3A389206043F0800359
:101BC00006F47046A381B6F5005F4FF48063C4E964
:101BD0000403DED1B4F90E10284600F057F80028AF
:101BE000D7D0A38923F0030343F00103A381D0E7F7
:101BF000B4F90C3013F0800F14BF40264FF4806608
:101C000031462846FFF776FB40B1A389206043F0B8
:101C10008003C4E90406A38116B070BDB4F90C308A
:101C20009A05B6D423F0030304F1470243F00203FC
:101C30000121C4E90421A3812260AAE770B50C4602
:101C4000B1F90E10002996B015461E460FDB6A4604
:101C500000F0D2F800280ADB019B03F47043A3F5DF
:101C60000053B3FA83F34FF480625B0908E0A28962
:101C700012F0800F4FF0000314BF40224FF4806237
:101C8000002033602A6016B070BD00BF38B5074D24
:101C90000022044608462A6002F021FA431C00D0C4
:101CA00038BD2B68002BFBD0236038BD1C290020D9
:101CB00038B5074D0022044608462A6003F09CF818
:101CC000431C00D038BD2B68002BFBD0236038BDEF
:101CD0001C29002010B50C46B1F90E1000F076F862
:101CE000002803DB636D0344636510BDA38923F4FF
:101CF0008053A38110BD00BF002070472DE9F04143
:101D00000C46B1F90C101F46CB05054616460BD400
:101D100021F48051A1813B46B4F90E103246284689
:101D2000BDE8F04100F094B8B4F90E10022300228F
:101D300000F078F8B4F90C10EAE700BF10B50C46D3
:101D4000B1F90E1000F06EF8B4F90C30421C0EBF61
:101D500023F4805343F480536065A38110BD00BF1A
:101D6000B1F90E1000F020B851F8043C181F002BF8
:101D7000BCBF0B58C018704770B50C46084D0346E1
:101D80000026204611461C462E6002F0A9F9431C8D
:101D900000D070BD2B68002BFBD0236070BD00BF4E
:101DA0001C29002002F09AB938B5074D00220446DC
:101DB00008462A6002F090F9431C00D038BD2B6819
:101DC000002BFBD0236038BD1C29002038B50C4601
:101DD000084D8446114620461A4600232B6064466F
:101DE00002F080F9431C00D038BD2B68002BFBD0DB
:101DF000236038BD1C29002070B50C46084D0346F1
:101E00000026204611461C462E6002F066F9431C4F
:101E100000D070BD2B68002BFBD0236070BD00BFCD
:101E20001C29002038B50C46084D84461146204632
:101E30001A4600232B60644602F053F9431C00D07D
:101E400038BD2B68002BFBD0236038BD1C29002037
:101E500038B50C46084D8446114620461A460023E4
:101E60002B60644602F03FF9431C00D038BD2B685C
:101E7000002BFBD0236038BD1C290020FEE700BFEB
:101E800030B502460C4912F8035BB0F80130C47853
:101E900051F82510C0F1FF205BBA00F57F0011FA60
:101EA00083F3FD3081188C4201DC002030BD12F834
:101EB000011F03F8011BF5E70000002010B502F038
:101EC000B5F9074901F51664204601F06EFB02F0F2
:101ED000B4F922463F21722002F0FAF8002010BD2A
:101EE0009800002000B593B002F0A0F902F0A5F927
:101EF000064946226846FEF7B5FA6A463F21722037
:101F000002F0E6F8002013B05DF804FB6050000812
:101F100070B58AB002F08AF902F08FF90B4B01AC70
:101F200003F12006224618685968254603C5083380
:101F3000B3422C46F7D119889B782980AB702321B6
:101F4000722002F0C5F800200AB070BDA75000084A
:101F500010B502F06BF9094800F51664224600F549
:101F6000606100F5626001F03FFB02F066F9224615
:101F70003F21722002F0ACF8002010BD9800002034
:101F800010B502F053F9084A02F5606402F5626187
:101F9000204601F05AFB02F050F922463F21722000
:101FA00002F096F8002010BD9800002008B502F05D
:101FB0003DF9094800F5B47200F6C82100F6087032
:101FC00001F043FB02F039F9044A3F21722002F08C
:101FD0007FF8002008BD00BF90110020980E00205F
:101FE00070B5114B0278B0F8014053F82250C67812
:101FF00090B064BA3F220021A4B26846FEF7DAF935
:102000002B1969460022B24207DB6A463F21722043
:1020100002F05EF8002010B070BD13F8010B01F85B
:10202000010B0132EFE700BF0000002008B502F00D
:102030005BF802F099F802F0D5F801F0D5FF154AE7
:102040003F21672001F0CCFF134A3F21652001F0BA
:10205000C7FF124A3F21642001F0C2FF104A3F210E
:10206000742001F0BDFF0F4A3F21632001F0B8FF4B
:102070000D4A3F21692001F0B3FF0C4A3F21722035
:1020800001F0AEFF0A4A0121702001F0A9FF01F022
:10209000C1FFFCE7BD1E0008511F0008811F00089A
:1020A000AD1F0008E51E0008811E0008E11F0008A2
:1020B000111F0008F0B500250B6803F055325B08CE
:1020C00003F05533134400EB45070224A21E23FA04
:1020D00004F623FA02F202F0030206F003060434C7
:1020E000921B222C27F8022BF0D10835B5F5807F02
:1020F00001F10401E0D1F0BDFFF7DCBFFFF7DABF6B
:102100002DE9F04FBDB003680A9343680B938368D1
:102110000C93C3680D9303690E9343690F9383690E
:102120001093C3691193036A1293436A1393836AEA
:102130001493C36A1593036B1693436B1793836BC6
:102140001893C36B1993036C1A93436C1B93836CA2
:102150001C93C36C1D93036D1E93436D1F93836D7E
:102160002093C36D2193036E2293436E2393836E5A
:102170002493C36E2593036F2693436F2793836F36
:102180002893C36F2993D0F880302A93D0F88430F5
:102190002B93D0F888302C93D0F88C302D93D0F836
:1021A00090302E93D0F894302F93D0F8983030930D
:1021B000D0F89C303193D0F8A0303293D0F8A430CE
:1021C0003393D0F8A8303493D0F8AC303593D0F8AE
:1021D000B0303693D0F8B4303793D0F8B830389365
:1021E000D0F8BC303993D0F8C0303A93D0F8C460FE
:1021F000014B009302E000BF904E0008149A0A9B26
:10220000159953400B9A82EA01051E9A53401F9A72
:102210005540289A5340299A5540329A5340339A50
:10222000089355400C9B169A83EA02090D9B179A56
:1022300083EA0208209B189A89EA0309219B88EA0D
:1022400003082A9B89EA03092B9B88EA0308349B2D
:1022500089EA0309359B88EA03080E9B83EA020C8E
:102260000F9B199A83EA0207229B239A8CEA030C9C
:1022700057402C9B2D9A8CEA030C5740369B379A7B
:102280008CEA030C5740109B1A9ADDF874E083EA3D
:102290000204119B1B9A83EA0201249A129B544068
:1022A000259A51402E9A54402F9A5140389A5440C2
:1022B000399A51401C9A5A40139B83EA0E0E269B72
:1022C0005A40279B8EEA030E309B5A40319B8EEA80
:1022D000030E3A9B4FEA490B5A404BEAD87B4FEA30
:1022E000480A8EEA060E8BEA02034AEAD97A01937B
:1022F0008AEA0E0302934FEA4C0B089B4BEAD77B0A
:102300004FEA470A4AEADC7A8BEA030303938AEA34
:1023100005034FEA410A4AEAD47A04938AEA080399
:102320004FEA4E0848EAD278520042EADE7205933C
:1023300082EA0C03069388EA07030793089B6A0066
:1023400042EAD3725B0043EAD5736340089382EAA2
:1023500001034FEA440B0A9A0993019B4BEAD17B94
:102360008BEA090B83EA0209029B0B9A1799239CBB
:102370002F9F83EA020A039B169A5A40049B150D6D
:102380004B4045EA03351B0D43EA0233229A059977
:102390008BEA02024C404FEA525848EAC428640DC6
:1023A00044EAC2242E99069A5140079A7A404FEA8D
:1023B000425E4EEAD12E49053A9F41EAD221089A5F
:1023C0007A40099F7E404FEA863C4CEA924C920349
:1023D00042EA9642009ED6E900768AEA06060B9605
:1023E00089EA070728EA05067E400B9F0A9624EA39
:1023F000030677402EEA04065E400B9721EA0807A1
:102400006F40239625EA09052CEA0E0623EA0A0303
:10241000744083EA0C0329EA0206229722EA0107A4
:102420006A4071403B942E922AEA0C04109A2F9332
:10243000069B169187EA080784EA0E013A971791DE
:1024400083EA0201079B119A1D9C2B9F53404FEA80
:10245000037C4CEA111C090741EA13111C9A089BE2
:102460005340099A6240160546EA13361B051E9C26
:1024700043EA1233019A82EA04051F9C029A6240E1
:102480004FEAC20848EA5578ED002A9C45EA5275A1
:10249000039A6240049C4FEAD24E7C404EEA443E8E
:1024A000E40C44EA4234369A379F8BEA0209059AD3
:1024B0007A404FEAD90747EA427725EA030AD20869
:1024C00042EA49728AEA010A28EA060989EA0C09FD
:1024D000CDF8A8A02EEA050A8AEA030ACDF8AC9046
:1024E00024EA080989EA0609CDF840A023EA010395
:1024F00027EA0E0A8AEA050526EA0C067B40CDF893
:10250000449022EA04091E951C9389EA080586EA8C
:1025100002031F951D932CEA0205039B0C9A21EAE6
:10252000070883EA0201049B0D9A53404FEA430CCB
:102530004CEAD17C88EA0E0E6C40490041EAD37126
:10254000CDF8D8E0189B3794059A199C319FDDF897
:10255000CC9062408BEA0303960146EA93669B01A6
:10256000249C43EA9263069A82EA0405259C079A12
:1025700062404FEA426848EAD5186D0645EAD2152E
:10258000309C089A5440099A7A404FEA022E4EEA4B
:10259000146E2402329F44EA1264019A7A40029F28
:1025A00087EA09094FEA894747EA923725EA030A89
:1025B000920442EA99328AEA010A28EA060989EA7B
:1025C0000C09CDF860A024EA050A8AEA030ACDF8CE
:1025D000649023EA01032EEA080989EA06095340B8
:1025E00026EA0C06CDF8C0A022EA040A8AEA05050C
:1025F000CDF8C490329327EA0E0986EA07030C95BA
:10260000339389EA0805089B0D9521EA0208129A7E
:1026100083EA0201139A099B53402CEA07054FEA0B
:10262000C36C4CEA511CC90641EA531188EA040400
:10263000019B149A249485EA0E045A402594029B27
:10264000159C160F634046EA03161B0F43EA02135C
:10265000039A209C2D9F82EA0405219C049A6240E3
:102660004FEA822848EA9558AD0245EA92552C9ADD
:102670008BEA0204059A7A404FEAC23E4EEA544E73
:10268000E403389F44EA5244069A82EA0709399FD4
:10269000079A7A404FEA192747EA026725EA060AAD
:1026A000120A42EA09628AEA010A28EA030989EA67
:1026B0000C09CDF8E0A024EA050A8AEA060ACDF85A
:1026C000E4902EEA080989EA0309CDF850A023EA2C
:1026D0000C0327EA040A8AEA05055340CDF8549012
:1026E00026EA010622EA0E092C95219389EA0805BB
:1026F0000E9B2D9521EA070886EA07012CEA0205C0
:1027000088EA0404059A20910F9912948BEA030336
:1027100085EA0E0413949D0882EA010445EA847553
:10272000A40844EA83741A9A069B269E279F83EA8C
:102730000201079B1B9A5A404B0A43EAC253520AB2
:1027400042EAC15208997140099E4FEA516C7740A4
:102750004CEAC71C7F0E47EAC1170199289EDDF895
:10276000A4E0DDF8D4907140029E4FEAD15886EA89
:102770000E0648EA4628F60DDDF8D0E046EA412686
:10278000039981EA0E01DDF810E08EEA09094FEAAB
:10279000890E4EEA917E2CEA030A890041EA99717A
:1027A0008AEA050A27EA0209CDF898A089EA04090D
:1027B00028EA0C0ACDF89C908AEA030A26EA07095F
:1027C00023EA050389EA02094B4022EA04020E9338
:1027D00082EA0E03CDF8D0A02A9ACDF8D49021EA4F
:1027E000080A2EEA06090F930A9B8AEA0C0C89EA6A
:1027F0000707CDF868C01B9725EA010C24EA0E07ED
:102800002B995A400B9B7E40299683EA0106189922
:10281000229B4A4019994E4038994A4039994E4076
:1028200026994A4027994E40109983EA0109119947
:10283000239B8CEA080CCDF8A0C083EA0108309BEA
:102840001E99DDF8CCE089EA0309319B88EA030888
:10285000149B89EA0309159B88EA0308349B89EADB
:102860000309359B88EA03083A9B83EA010C3B9BEA
:102870001F9983EA01070C9B0D998CEA030C4F40CA
:102880002C9B2D998CEA030C4F401A9B1B998CEAC8
:10289000030C4F40169B369983EA0105179B379925
:1028A00083EA010424991C9B4D4025994C401299C0
:1028B0004D4013994C4028994D4029994C403299EC
:1028C00059401D9B83EA0E0E2E9B59402F9B8EEA8A
:1028D000030E209B5940219B8EEA030E0E9B4FEA6C
:1028E000490B59400F9B4BEAD87B4FEA480A8EEAC6
:1028F000030E4AEAD97A8BEA01034FEA4C0B0193A3
:102900004BEAD77B8AEA0E034FEA470A02934AEA68
:10291000DC7A8BEA020303938AEA06034FEA440A4D
:102920004AEAD57A04938AEA08034FEA4E0848EA4D
:10293000D178490041EADE71059381EA0C03710008
:1029400041EAD2715200069342EAD67288EA07033E
:10295000079382EA0503089381EA0403019A099325
:102960004FEA450B0A9B079E099F4BEAD47B8BEAF3
:10297000090B83EA02090B9B029A059C83EA020A6F
:10298000109B039A83EA0201119B049A0D0D5A4091
:102990000C9B45EA0235120D42EA013283EA0B0133
:1029A0000D9B4FEA51585C4048EAC428640D44EA44
:1029B000C124129B06995940139B5E404FEA465E24
:1029C0004EEAD12E490541EAD621089B0E9E5E4073
:1029D00033460F9E7E404FEA863C4CEA934C9B0365
:1029E00043EA9643009ED6E902768AEA06060B96EB
:1029F00089EA070728EA05067E400B9F0A9624EA23
:102A0000020677402EEA040656400B9721EA080793
:102A10006F400D9625EA09052CEA0E06744022EA5D
:102A20000A0229EA03060C9723EA01076B40129376
:102A300082EA0C037140069A0F9413932AEA0C045D
:102A4000169B109184EA0E01119183EA0201079A04
:102A5000179B099C53404FEA037C4CEA111C090761
:102A600041EA1311089A1C9B53401D9A62401605B7
:102A700046EA13361B0543EA1233019C189A82EA90
:102A80000405029C199A624087EA08074FEAC208C7
:102A900048EA5578ED0045EA5275039C149A0E9762
:102AA0006240049F159C4FEAD24E7C404EEA443E61
:102AB000E40C44EA42341A9A82EA0B091B9A059FF5
:102AC0007A404FEAD90747EA427725EA030AD20853
:102AD00042EA49728AEA010A28EA060989EA0C09E7
:102AE000CDF850A02EEA050A8AEA030ACDF85490E0
:102AF00024EA080989EA0609CDF858A023EA010367
:102B000027EA0E0A8AEA050526EA0C067B40CDF87C
:102B10005C9022EA040918951C9389EA080586EA64
:102B2000020319951D932CEA0205229B039ADDF8F6
:102B3000089021EA070883EA0201049A239B099F6F
:102B400053406C404FEA430C4CEAD17C1F9A1B94D3
:102B50004900059C41EAD3711E9B624083EA0B0346
:102B6000960146EA93669B0143EA9263069C249A87
:102B700082EA0405079C259A624088EA0E0E4FEA15
:102B8000426848EAD5186D0645EAD215089C209A95
:102B9000CDF868E05440219A7A404FEA022E4EEA7E
:102BA000146E240244EA1264019F269A7A40279FF9
:102BB00087EA09094FEA894747EA923725EA030A73
:102BC000920442EA99328AEA010A28EA060989EA65
:102BD0000C09CDF878A024EA050ACDF87C908AEAA1
:102BE000030A2EEA080923EA010389EA0609534089
:102BF00026EA0C06CDF880A022EA040A8AEA050536
:102C0000CDF88490269327EA0E0986EA07032295D9
:102C1000279389EA08052E9B239521EA0208089A42
:102C200083EA0201099A2F9B53402CEA07054FEAD9
:102C3000C36C4CEA511CC90641EA531188EA0404EA
:102C40002A9B019A249485EA0E045A4025942B9BD2
:102C5000029C059F6340160F46EA03161B0F43EACA
:102C60000213039C309A82EA0405049C319A624064
:102C70004FEA822848EA9558AD0245EA92552C9AC7
:102C800082EA0B042D9A7A404FEAC23E4EEA544E35
:102C9000E40344EA5244069F289A82EA0709299AE3
:102CA000079F7A404FEA192747EA026725EA060A92
:102CB000120A42EA09628AEA010A28EA030989EA51
:102CC0000C09CDF8A0A024EA050A8AEA060ACDF884
:102CD000A4902EEA080989EA0309CDF8A8A027EAFA
:102CE000040A8AEA0505CDF8AC9023EA0C0322EA2F
:102CF0000E0953402C9526EA010689EA08052D9510
:102D000021EA0708319386EA07013A9B30912CEAC1
:102D1000020505993B9A029FDDF8109083EA0B03A8
:102D20004A404FEA930C4CEA827C920842EA837252
:102D30000699369B88EA04042E9485EA0E044B40DB
:102D40002F943799079C5D0A81EA040645EAC65527
:102D5000760A46EAC3560899329B099C4B40339940
:102D60004FEA53684C4048EAC418640E44EAC3145E
:102D70000199389B4B4039994FEAD35E79404EEA2E
:102D8000412EC90D41EA4321039F349B7B40359F6F
:102D900087EA09094FEA890747EA93779B0043EAE4
:102DA000997328EA050A24EA060989EA02098AEAE7
:102DB0000C0ACDF8C8A0CDF8CC902EEA080A21EA7A
:102DC00004098AEA050A89EA0609CDF8D0A0CDF8F7
:102DD000D49023EA0E0A27EA01098AEA080889EA58
:102DE0000404CDF8D88037942CEA030822EA0704BB
:102DF00025EA0C056B4088EA0E0E6140CDF8E0E054
:102E000039913A93009B1033009326EA02063D4B1A
:102E1000009A934286EA07067FF4F0A90A9B0360B2
:102E20000B9B43600C9B83600D9BC3600E9B0361F7
:102E30000F9B4361109B8361119BC361129B0362D3
:102E4000139B4362149B8362159BC362169B0363AF
:102E5000179B4363189B8363199BC3631A9B03648B
:102E60001B9B43641C9B83641D9BC3641E9B036567
:102E70001F9B4365209B8365219BC365229B036643
:102E8000239B4366249B8366259BC366269B03671F
:102E9000279B4367289B8367299BC3672A9BC0F8AE
:102EA00080302B9BC0F884302C9BC0F888302D9B41
:102EB000C0F88C302E9BC0F890302F9BC0F8943017
:102EC000309BC0F89830319BC0F89C30329BC0F8E2
:102ED000A030339BC0F8A430349BC0F8A830359B99
:102EE000C0F8AC30369BC0F8B030379BC0F8B43077
:102EF0003A9BC0F8B8E0C0F8BC10C0E930363DB02D
:102F0000BDE8F08F504F0008F8B5069E05460C4608
:102F100010460CB91846F8BDB34202D1FFF7F0F8DD
:102F200000231C44B34201D2A34201D3E41AF0E7C8
:102F300023F00701471803F00702D7F804E04158CF
:102F4000D200C2F1200CA2F12007D1400EFA0CFCF5
:102F500041EA0C012EFA07F7394305F8011B01334A
:102F6000E0E72DE9F74F0D4690460021C8221F46A5
:102F70009DF830600446FDF71DFAEB080193AF425F
:102F80002BD24FF0000B2BF0070004EB000C0BF0E2
:102F90000701C9005F4554F80090DCF804E0A1F196
:102FA0002003C1F1200A49D126FA0AFA06FA03F3EE
:102FB000013D8E4043EA0A0386EA090625F007052B
:102FC000265083EA0E032C44CCF80430636803F1E6
:102FD0000043636003B0BDE8F08FA4F108034FF035
:102FE000000C002108EBCC0B89468E461BF8010B28
:102FF000A1F1200AC1F1200200FA0AFA20FA02F235
:10300000884008314AEA0202402940EA090942EAB6
:103010000E0EEBD153F8081F5A6881EA090182EAC3
:103020000E02C3E90012019A0CF1010C6245D8D8D6
:103030002046A8447F1BFFF763F8A0E718F80B2091
:1030400002FA03F322FA0AFA43EA0A038A4082EAFE
:10305000090283EA0E0322500BF1010BCCF8043075
:1030600091E72DE9F84F06460D4610461F464FEAF8
:10307000D3080DB9BDE8F88FFFF742F8A0F10802B8
:10308000002352F808BFD2F804A006EBC3090024BD
:10309000C4F1200EA4F1200C2BFA04F10AFA0EFE62
:1030A00041EA0E012AFA0CFC083441EA0C01402CDA
:1030B00009F8011BECD101334345E2D33E44013D05
:1030C000D7E713B513461F2200920A46A8210446EB
:1030D000FFF747FFA823C4F8C83002B010BDA823EB
:1030E000FFF7BFBF13B588230093D2F8C83014464A
:1030F000FFF70AFFC4F8C80002B010BD13B51346AD
:103100001F2200920A4688210446FFF72AFF8823DF
:10311000C4F8C83002B010BD8823FFF7A2BFF0B5D5
:10312000B5B005460E466846114688271A46FFF791
:10313000E5FFB6FBF7F46A46214628467C43FFF7D5
:10314000EBFF6A46311B2819FFF7CCFF35B0F0BD05
:10315000F0B5B5B013460622009204460A4602A80E
:103160008821FFF7FEFE02A8FEF7CAFF0021D0E982
:1031700000EC671808300023C3F12006A3F12005F6
:103180002EFA03F20CFA06F632432CFA05F5083350
:103190002A43402B07F8012BEED108312029E6D134
:1031A00035B0F0BDF0B5B5B0134606220092044626
:1031B0000A4602A84821FFF7D4FE02A8FEF7A0FFA6
:1031C0000021D0E900EC671808300023C3F1200685
:1031D000A3F120052EFA03F20CFA06F632432CFA7C
:1031E00005F508332A43402B07F8012BEED10831AF
:1031F0004029E6D135B0F0BDF0B50746C2F1030E67
:10320000002092F801C01678957846EA0C26C6F39D
:103210000B06B6F5506FD6BF441C044627F8106065
:103220008C4212D22D0145EA1C15B5F5506F05DC14
:10323000601C814227F8145001D8F0BD20460332AB
:103240000EEB0204A342DCD2F7E72046F5E72DE9B6
:10325000F04FADF5377D0F460090019200264FF0FC
:10326000030A009B4FF4C06202FB06380025019B55
:10327000EAB2F1B20BB313460A46394602A800F08F
:10328000BBFD08EB452902AA032137A8FFF727FF5A
:103290004FF4FC7337AA4FF480714846FFF7ACFF38
:1032A0000446FF2C0BD90135032DE0D10136032E46
:1032B000D7D10DF5377DBDE8F08F0B46DDE7B3FBC9
:1032C000FAF202EB4202981A37A94FF0000BD21A19
:1032D000834511D137AB03EB0B0002AA0121FFF7A5
:1032E000FEFEC4F5807109EB44000BF1A80337AA78
:1032F000FFF782FF0444D4E703EB010C0BF1010B51
:103300001CF802C001F801CBE2E72DE9F043ADF56E
:10331000115D81B00023202204466846884600F0F3
:1033200030FD20226946684608ADFFF73BFF0022CA
:1033300069460DF59250FFF78AFF294600220DF5E8
:10334000446000F05BFB294601220DF5646000F04B
:1033500055FB294602220DF5825000F04FFB29460D
:10336000032210A800F04AFB2946042290A800F08E
:1033700045FB294605220DF5886000F03FFB0DF561
:10338000446000F080FC10A800F07DFC0DF5C866DC
:103390000DF592554FF000093746294630460DF598
:1033A000446200F08CFC09F10109304600F06AFB30
:1033B000B9F1030F06F5007605F5C065EDD110AA49
:1033C0003946384600F0AFFC384600F09EFC0DF55B
:1033D0004461404600F031FC3946204600F02DFCA7
:1033E0006B4604F5906203F120051C4603CCAC4209
:1033F00010605160234602F10802F6D10DF5115D0F
:1034000001B0BDE8F083F0B5ADF5405D89B015467B
:1034100006460F460DF5426011461C4600F020FCA2
:1034200005F59063EC4605F59465186859686246A1
:1034300003C20833AB429446F7D1394688A800F05E
:10344000A5FA69460DF5F1500122FFF700FF21466C
:103450000DF5C460002200F0D1FA21460DF502609E
:10346000012200F0CBFA21460DF52260022200F085
:10347000C5FA21460DF59150032200F0CEFA2146FF
:103480000DF5A150042200F0C8FA21460DF5B15007
:10349000052200F0C2FA214606220DF5846000F0F4
:1034A000BCFA0DF5C46000F0EEFB0DF5C4620DF53D
:1034B000F1510DF5C15000F002FC0DF510510DF564
:1034C000C4620DF5D150203100F0F9FB0DF5285103
:1034D0000DF5C4620DF5E150203100F0F0FB0DF563
:1034E000C4620DF5426108A800F0E9FB0DF5C1507A
:1034F00000F0D7FB08A800F09FFA0DF5C1510DF5BB
:103500009152084600F00FFC08A90DF584620846A8
:1035100000F0DCFA08A988AA084600F0D7FA0DF5F1
:10352000C15000F0F2FB08A800F0BBFA0DF5C15144
:10353000304600F0E7FA08A906F5707000F08CF943
:103540000DF5405D09B0F0BD70B5ADF5805D044688
:103550000E460DF58060154600F02EFB06F57071E5
:10356000684600F0BFF929460DF5206000F078FBB1
:103570000DF5806000F087FB0DF580620DF5206190
:1035800080A800F09CFB80A800F056FA80AA1046A4
:10359000694600F0A9FA80A800F083FA80A92046C5
:1035A00000F00AFA0DF5805D70BD38B505460C4691
:1035B000FFF7ABFE6B1E04F27F4205F29F4113F84A
:1035C000010F02F8010F8B42F9D1294604F5126070
:1035D0004FF49462FFF7BCFD2022002304F5146031
:1035E00000F0CFFB002038BD70B5A0B0002304462A
:1035F0001546684620220E4600F0C3FB6946684621
:103600002022FFF7A5FD294608A84FF49462FFF792
:103610009FFD40220DEB02006946FFF7C3FD18AB8A
:103620002A4669462046FFF7EEFE214618A84FF4C9
:103630008862FFF78DFD402330460DEB0302202109
:10364000FFF76DFD002020B070BDF0B5ADF2C44DA8
:103650001546074668460E4605F51264FFF774FFE7
:1036600008AA05F5146C20686168134603C3083482
:1036700064451A46F7D140220DEB02006946FFF778
:1036800091FD18AB05F59062694620A8FFF7BBFED7
:1036900020A94FF48862304600F0E1FB3146054630
:1036A0004FF4886218A8FFF753FDEBB2214610A82B
:1036B000202200F0D6FB402338460DEB03022021E8
:1036C000FFF72DFD00200DF2C44DF0BD2DE9F04FA8
:1036D000064685B04FF007094FF0010880251F4BC3
:1036E00003EB48026B1C0024009305EB040A32F93B
:1036F000021B08F1010806EB4A0306EB4407A34648
:10370000B3F90000039248430293019100F01BFBC0
:10371000B7F900C0029B0199039A80B2ACEB000C90
:1037200023F802CB37F802CB0BF1010B6044D345F1
:1037300027F8020CE4D3611C6B1E8A4538BF0023B6
:1037400000990C441C44FF2CCFD9B9F101094FEA70
:103750005505C4D105B0BDE8F08F00BF504F00083B
:103760002DE9F04F044685B04FF007094FF07F0870
:103770000227234B002503EB480232F9023901935B
:1037800005EB070A08F1FF3804EB450B04EB4A068A
:10379000554518D307EB0A05FF2DEED9B9F10109FC
:1037A0004FEA4707E5D1A51E40F2A15604F5FF7484
:1037B00035F9020F704300F0C6FAA5422880F7D110
:1037C00005B0BDE8F08FBBF80010B6F90000039219
:1037D000084400B2029100F0C4FA2BF8020B0299DF
:1037E00036F8020B019B401A00B226F8020C58432F
:1037F00000F0A9FA0135039A26F8020CC8E700BFC9
:10380000504F0008F8B504461F464888538810FBFF
:1038100003F00E46154600F096FA2080784300F03B
:1038200092FA20802B88308810FB03F000F08BFA8E
:103830002388184420806B88308810FB03F000F048
:1038400082FA60802B88708810FB03F000F07BFA0E
:10385000638818446080F8BDF7B5214E0A460430ED
:10386000002140F601556C4602F1100732F902CBF7
:1038700005EAEC7363441BB21B0103F281637343DB
:103880001B0F974204F8013BF0D19DF801209DF8F1
:10389000003043EA021300F8043C9DF803209DF831
:1038A000023043EA021300F8033C9DF805209DF81E
:1038B000043043EA021300F8023C9DF807209DF80B
:1038C0000630083143EA0213B1F5807F00F8013C6D
:1038D00000F1040001D03A46C5E703B0F0BD00BFD7
:1038E000FB3A010030B50139002240F60154851C35
:1038F00011F8013F03F00F03634308331B1120F855
:1039000022300B781B09634308331B1125F8223042
:103910000132802AECD130BDF0B5002240F60156CC
:103920008F1C31F9223031F8224037F9225006EA53
:10393000E3731C4437F8223006EAE5752B449BB24A
:10394000A4B21D01013204701B0945EA1424802A27
:103950004470837000F10300E3D1F0BD30B5002363
:10396000841C4D780A7842EA0522C2F30B0220F843
:1039700023208A784D78120142EA151224F8232078
:103980000133802B01F10301EBD130BD70B5002272
:1039900040F2816600EB021500248B5C234143F367
:1039A000000301343340082C25F8023BF5D10132E5
:1039B000202AEFD170BD0000F0B500220E4F013873
:1039C000164600F8016F01EB4205002435F9023B71
:1039D00090F800C05B0003F281637B43C3F3007384
:1039E000A340013443EA0C03082C0370EED10832E3
:1039F000B2F5807FE5D1F0BDFB3A010010B5A0B073
:103A0000134604460A466846802100F00FFA6946CC
:103A10002046FEF771FB20B010BD10B5A0B01346D4
:103A200004460A466846802100F000FA69462046AE
:103A3000FEF764FB20B010BDFFF792BE2DE9F843FE
:103A40000F4F061D0D1D141D07F1800937F9028F58
:103A5000221F291F301F4346FFF7D4FEC8F1000381
:103A60002246294630461BB2FFF7CCFE4F4506F1F1
:103A7000080605F1080504F10804E7D1BDE8F8835C
:103A8000CE4F000870B5851E00F5FF7440F2495610
:103A900035F9020F704300F056F9A5422880F7D19E
:103AA00070BD38B5851E00F5FF7435F9020F00F0C2
:103AB00058F9A5422880F8D138BD10B50446FFF763
:103AC00005FE2046BDE81040FFF7EBBF30B50023F0
:103AD00031F8134032F813502C4420F813400133CE
:103AE000B3F5807FF4D130BD30B5002331F81340F9
:103AF00032F81350641B20F813400133B3F5807F74
:103B0000F4D130BD2DE9F74F8B4640F60159002125
:103B1000421D0BEBC10500243FE03EF902AB09EA70
:103B2000EA7353449BB240F281669B029B19214E7B
:103B30002CBF4FF0010A4FF0000AA3FB06C306FB9F
:103B40000A330137C3F30903042F28F8023BE4D1F9
:103B5000BDF80270BDF800E002F805ECBB0043EAD6
:103B60001E23BDF804E002F8043C4FEA0E1343EABA
:103B7000971302F8033CBDF8063004349F0147EA6E
:103B80001E179B08B4F5807F02F8027C02F8013C06
:103B900005F1080502F1050203D0E846AE4600270C
:103BA000BBE74031C02900F5A070B1D103B0BDE83A
:103BB000F08F00BFB7AF13002DE9F341002440F6AA
:103BC000015804EB84030B4400EBC406002593F872
:103BD00002C05F781A88ADF800204FEA8C1242EAE2
:103BE0009702ADF80220DA78170147EA1C17ADF802
:103BF00004701F79920942EA8702ADF80620053366
:103C0000EE46B44600273EF8022BC2F3090208FB39
:103C100002F202F500720137920A042F2CF8022BEF
:103C2000F1D10435B5F5807F06F10806CFD14034D7
:103C3000C02CC6D102B0BDE8F08138B504460D46AF
:103C4000FFF76AFE05F5007104F5C070FFF764FE2A
:103C500005F5806104F54070BDE83840FFF75CBEB3
:103C600038B504460D46FFF779FE05F5C07104F539
:103C70000070FFF773FE05F5407104F58060BDE844
:103C80003840FFF76BBE10B50446FFF716FF04F58A
:103C90000070FFF712FF04F58060BDE81040FFF7E9
:103CA0000CBF10B50446FFF7C7FE04F50070FFF720
:103CB000C3FE04F58060BDE81040FFF7BDBE70B5DF
:103CC0000D46ADF5007D16460446FFF7B7FE06F536
:103CD000007205F500716846FFF7B0FE6A4621469E
:103CE0002046FFF7F3FE06F5806205F58061684621
:103CF000FFF7A4FE6A4621462046FFF7E7FE20466E
:103D0000FFF7CFFE0DF5007D70BD10B50446FFF73F
:103D1000C8FE04F50070FFF7C4FE04F58060BDE83E
:103D20001040FFF7BEBEF8B505460E461746002404
:103D30003A193119281904F50074FFF7C7FEB4F5D4
:103D4000C06FF5D1F8BD00EB400303EBC30303EBF9
:103D5000C30300EB03234FF2FF2213FB0200001406
:103D600070474FF0007244F6BF6310FB03239B16AD
:103D700003EB430203EB820203EB0223C01A00B2FF
:103D800070472DE9FF470446164600211022684679
:103D90001F46FCF70FFB4FF0FF090DF1100856EA24
:103DA000070325D0EA460025FCF768FA013590FBA9
:103DB000F9F3102D03440AF8013BF5D1102E77F1E9
:103DC000000304F110020ED36B461D4603CD45459A
:103DD000206061602B4604F10804F6D1103E67F1C3
:103DE00000071446DBE7324669462046FCF73AFBFB
:103DF000012004B0BDE8F087F0B58BB006460C4654
:103E000001AF01F1200C206861683D4603C508340C
:103E100064452F46F7D18DF8242001A9222230468F
:103E20008DF82530FFF74DF90BB0F0BDF0B58BB034
:103E300005460E4601AF02F1200C106851683C4661
:103E400003C4083262452746F7D18DF8243001AA11
:103E5000212331462846FFF762F90BB0F0BD002060
:103E6000704730B55B42DBB201390244904200D169
:103E700030BD057811F8014F6C401C40654000F8DA
:103E8000015BF3E701207047F8B514460E4600F0D9
:103E9000F5F90C4F651EC4F1010463199E4204DC60
:103EA000BDE8F8400A2000F0E9B915F8013F1B0908
:103EB000F85C00F0E3F92B7803F00F03F85C00F0F6
:103EC000DDF9EAE75050000807B5074B0DF107028E
:103ED0001B688DF8073001217220FFF7D5FF002005
:103EE00003B05DF804FB00BF5825002070B5124CEC
:103EF000216898B0CDB20020C3B2AB4200F10100FE
:103F000009DB01EB41016A46C9B27220FFF7BCFF31
:103F1000002018B070BD03EB4302603204EB0313C2
:103F20006A441E7902F8606C9E681B7C02F85F6C24
:103F300002F85E3CE0E700BF58250020F0B5002500
:103F40004F1C854201DB002021E017F8154011F8D5
:103F50001530A4F13006F6B2092E0CD81670A3F174
:103F60003004E4B2092C15D8137843EA0413137013
:103F700001350132E5E7A4F14106052E02D8373CB0
:103F80001470ECE7A4F16106052E01D90120F0BD03
:103F9000573CF5E7A3F14104052C02D8A3F13704FF
:103FA000E2E7A3F16104052CF0D81478573B44EA0A
:103FB0000313DCE770B5094E34681F2C0BDC3F2976
:103FC00009D806EB0415C5E90212013428712B74D7
:103FD0003460002070BD0120FCE700BF58250020A0
:103FE0000023FFF7E7BF000008B5074A002176204D
:103FF000FFF7F6FF054A7720FFF7F2FFBDE808401C
:10400000034A7920FFF7ECBF853E0008ED3E00082B
:10401000C93E00082DE9F0412C4DB2B000F014F972
:104020002A46002352F8041B99423FDC3BD005EBA3
:1040300003141E01237CDB0713D500238DF8083001
:1040400000F002F98DF8480000F0FEF802AA8DF8A1
:10405000490012A90120FFF771FF20BB9DF808302D
:10406000A36012AF002405EB0608D8F80830B4EBC3
:10407000430F21D300F0E8F80A2801D00D2812D10F
:10408000354402AAAC6812A92046FFF757FF50B981
:10409000E1B2EB6802A8984701AA8DF8040001215B
:1040A0007A20FFF7F1FE32B0BDE8F0811C01A45C7C
:1040B0008442BCD00133B7E700F0C6F80A28F2D03A
:1040C0000D28F0D007F8010B0134CEE75825002069
:1040D0000AB1FFF7D9BE7047704770477047704705
:1040E000704770477047704770B596B0002403263C
:1040F0004FF4A0230CA80125CDE90C63109414946F
:1041000000F0D4F80F23214602A8CDE90235CDE90D
:104110000444069400F010FB114B5A6942F400224B
:104120005A615B69CDE9094603F400230D4C019304
:10413000019B07A94FF4C0432046CDE9073500F0A5
:104140009BFB2A4620464FF4005100F053FC2A46C0
:104150004FF48041204600F04DFC16B070BD00BF0A
:10416000001002400008004810B54FF4C06288B04B
:104170000223CDE9032301210323CDE90513164CC6
:1041800007230793636943F400336361636903F4AE
:104190000033019303A94FF09040019B00F06CFBAA
:1041A0000E48DFF83CC04FF41643C0E900C30023BB
:1041B000C0E90233036183610C234361A36943F4C3
:1041C0008043A361A36903F480430293029B00F040
:1041D00027FD08B010BD00BF001002405C27002082
:1041E00000380140104B30B55A6942F400325A6130
:1041F0005B6987B003F400330093009B4FF4805455
:104200000123CDE901430025032301A94FF090408C
:10421000CDE9035300F030FB2A4621464FF0904091
:1042200000F0E8FB07B030BD0010024001224FF45F
:1042300080514FF0904000F0DDBB00224FF48051E0
:104240004FF0904000F0D6BB37B50A4D0A4C41F212
:10425000883301220DF10701284600F061FD18B9ED
:104260009DF8070003B030BD236A43F008032362C2
:10427000EDE700BF5C2700200038014007B541F2A0
:1042800088338DF8070001220DF10701024800F084
:10429000F1FC03B05DF804FB5C270020024B1868BA
:1042A000421C1A60704700BFCC27002003682DE92C
:1042B000F743D907044610D423689A077ED42368AD
:1042C0001E0700F1E78023685D0700F12A81E2699B
:1042D000002A40F0AD8100201FE0AE494B6803F09A
:1042E0000C03042B07D04B6803F00C03082B17D1E9
:1042F0004B68DB0314D54FF4003393FAA3F209683B
:1043000093FAA3F30122B3FA83F302FA03F30B4205
:10431000D2D06368002BCFD1012003B0BDE8F08379
:104320006268B2F5803F22D10B6843F480330B60A2
:10433000CB6AA06823F00F030343CB623AB3FFF7C5
:10434000ADFF4FF400360546012796FAA6F30A683A
:1043500096FAA6F3B3FA83F307FA03F31342ABD149
:10436000FFF79CFF401B6428EFD90320D5E70B68BB
:1043700032B923F480330B600B6823F48023D6E733
:10438000B2F5A02FF5D143F480230B60CCE7FFF703
:1043900085FF4FF400360546012796FAA6F30A6812
:1043A00096FAA6F3B3FA83F307FA03F3134283D022
:1043B000FFF774FF401B6428EFD9D6E775494B68B7
:1043C00013F00C0F07D04B6803F00C03082B1FD120
:1043D0004B68DF031CD4022393FAA3F2086893FA14
:1043E000A3F30122B3FA83F302FA03F3034202D0E8
:1043F0002369934290D10868F82292FAA2F2636985
:10440000B2FA82F2934020F0F80213430B6056E7B1
:1044100022690125F2B195FAA5F3B3FA83F303F10A
:10442000845303F584139B0002271D60FFF736FFBA
:10443000064697FAA7F30A6897FAA7F3B3FA83F345
:1044400005FA03F31342D6D1FFF728FF801B022899
:10445000EFD98AE795FAA5F3B3FA83F303F184530E
:1044600003F584139B0002271A60FFF717FF064627
:1044700097FAA7F30A6897FAA7F3B3FA83F305FA52
:1044800003F313423FF41BAFFFF708FF801B022822
:10449000EED96AE7A2693F4D3F48012102B391FA84
:1044A000A1F3B3FA83F303449B0002261960FFF7DC
:1044B000F5FE074696FAA6F396FAA6F396FAA6F341
:1044C0006A6A96FAA6F3B3FA83F301FA03F3134286
:1044D0007FF4F9AEFFF7E2FEC01B0228EAD944E7F9
:1044E00091FAA1F3B3FA83F303449B0002261A6006
:1044F000FFF7D4FE074696FAA6F396FAA6F396FAC5
:10450000A6F36A6A96FAA6F3B3FA83F301FA03F301
:1045100013423FF4D8AEFFF7C1FEC01B0228EAD910
:1045200023E71C49CB69D80031D4CB6943F08053D1
:10453000CB61CB6903F080530193019B0125174E9A
:104540003368DA052CD5E368012B39D10B6A43F0C7
:1045500001030B62FFF7A2FE022607464FF0010897
:1045600041F2883996FAA6F396FAA6F30A6A96FA01
:10457000A6F3B3FA83F308FA03F3134252D0002DE3
:104580003FF4A5AECB6923F08053CB619FE60025B5
:10459000D5E700BF0010024020819010007000405D
:1045A000336843F480733360FFF778FE074633685F
:1045B000DB05C8D4FFF772FEC01B6428F7D9D4E628
:1045C00013BB0B6A23F001030B620B6A23F0040395
:1045D0000B62FFF763FE022607464FF0010841F227
:1045E000883996FAA6F396FAA6F30A6A96FAA6F31B
:1045F000B3FA83F308FA03F31342C0D0FFF74EFE79
:10460000C01B4845EDD9B0E6052B0B6A03D143F03A
:1046100004030B629AE723F001030B620B6A23F099
:10462000040396E7FFF73AFEC01B48459AD99CE67B
:104630003F494B6803F00C03082B3FF46DAE022A90
:104640004FF0807350D193FAA3F3B3FA83F303F1DD
:10465000845303F584139B0000221A60FFF71EFEAB
:10466000DFF8D08006464FF00077012597FAA7F3D0
:104670000A6897FAA7F3B3FA83F305FA03F3134230
:104680002CD1D4E908034A68034322F4741213437B
:104690004B604FF0807393FAA3F3B3FA83F303F103
:1046A000845303F584139B00224F1D60FFF7F6FD32
:1046B0004FF000750446012695FAA5F30A6895FAAD
:1046C000A5F3B3FA83F306FA03F313427FF403AEC0
:1046D000FFF7E4FD001BB842EED946E6FFF7DEFD2A
:1046E000831B4345C2D940E693FAA3F3B3FA83F39D
:1046F00003F1845303F584139B0000221A60FFF733
:10470000CDFD0C4F04464FF00075012695FAA5F338
:104710000A6895FAA5F3B3FA83F306FA03F3134292
:104720003FF4D9ADFFF7BAFD001BB842EED91CE645
:1047300000100240400D03004D4AF8B5136803F025
:1047400007038B42044611D3226895071AD4D00779
:1047500020D4474A136803F007038B426CD82268C1
:10476000510774D413077AD400200AE0136823F0A9
:1047700007030B431360136803F007038B42E3D076
:104780000120F8BD3B48A568436823F0F0032B43A4
:104790004360DCE76268374D012A25D14FF40033CE
:1047A00093FAA3F0286893FAA3F3B3FA83F302FA17
:1047B00003F30342E4D06B6823F0030313436B60FD
:1047C000FFF76CFD6368012B064641F288371CD168
:1047D0006B6803F00C03042BBBD0FFF75FFD801B5D
:1047E000B842F5D90320CCE7022A0CBF4FF0007382
:1047F000022393FAA3F02E6893FAA3F30120B3FAED
:1048000083F300FA03F33342D4E7022B0FD16B6832
:1048100003F00C03082B9CD0FFF740FD801BB8422F
:10482000F5D9DFE7FFF73AFD801BB842DAD86B68AD
:1048300013F00C0FF6D18CE7136823F007030B433A
:104840001360136803F007038B4299D187E7094986
:10485000E0684B6823F4E06303434B6082E7054A5A
:104860002169536823F4605343EAC10353607BE733
:1048700000200240001002402DE9F74FDFF8688168
:104880005A4C00234FF00F090A6832FA03F502D19F
:1048900003B0BDE8F08F012505FA03FA1AEA020217
:1048A00000F098804D6825F0100EBEF1020F11D176
:1048B000DF0800EB870703F0070C3E6A4FEA8C0C19
:1048C00009FA0CFB26EA0B0B0E6906FA0CF646EA0F
:1048D0000B063E62D0F800B04FEA430C032606FAFE
:1048E0000CF72BEA070BFE4305F0030707FA0CF75A
:1048F0000EF1FF3E47EA0B07BEF1010F076010D82B
:10490000876806EA070ECF6807FA0CF747EA0E0732
:104910008760476827EA0A0E2F099F4047EA0E077B
:104920004760C76837408E6806FA0CF63E43C6609B
:10493000EE004FD5D8F8186046F00106C8F81860A8
:10494000D8F8186023F0030707F1804706F0010646
:1049500007F58037019603F0030C019EBE684FEA0D
:104960008C0C09FA0CFEB0F1904F26EA0E0E33D0F3
:104970001F4EB04232D006F58066B04230D006F508
:104980008066B0422ED006F58066B04214BF052680
:10499000042606FA0CF646EA0E06BE602668D743E1
:1049A00015F4803F0CBF3E4016432660666815F440
:1049B000003F0CBF3E4016436660A66815F4801F9A
:1049C0000CBF3E401643A660E668AD0254BF3E40B1
:1049D0001643E660013357E70026DAE70126D8E7F9
:1049E0000226D6E70326D4E7001002400004014067
:1049F000000400480AB1816170478162704700007D
:104A000002688368C16930B5056914682B4345693C
:104A100024F416442B4324F00C040B43234313606B
:104A20005368C468056A23F4405323435360946871
:104A3000836924F430642B4323439360424B9A42AE
:104A400011D103F558431B6B03F00303022B5FD016
:104A5000032B65D0B1F5004F41684FEA510345D0B3
:104A600003F5E10348E0394B9A4212D103F5E633EE
:104A70001B6B03F44033B3F5003F49D0EAD9B3F5DB
:104A8000403F4DD0B1F5004F4FF001005BD1002306
:104A900053E02F4B9A420BD103F5E4331B6B03F425
:104AA0004023B3F5002F33D0D4D9B3F5402FE8E736
:104AB000284B9A420BD103F5E2331B6B03F44013EE
:104AC000B3F5001F24D0C5D9B3F5401FD9E7224B59
:104AD0009A42D7D103F5E0331B6B03F44003B3F5DF
:104AE000000F15D0B6D9B3F5400FCAE703F561033F
:104AF0001FE04B0803F50043B3FBF1F39BB2D36017
:104B0000002020E04B0803F5740303F51053F3E78E
:104B1000B1F5004F4168ECD14B0803F5803308E054
:104B2000B1F5004F4168EDD14B0803F1F47303F583
:104B30009043B3FBF1F300209BB223F00F01C3F3CA
:104B400042030B43D36030BD0038014000440040B5
:104B500000480040004C0040005000402DE9F0416A
:104B6000DDF81880044616461F462568EB6931EAD1
:104B700003030CBF01230023B34201D0002016E041
:104B8000B8F1FF3FF2D0B8F1000F12D12B6823F437
:104B9000D0732B60AB6823F00103AB60202384F853
:104BA000693084F86A30002384F868300320BDE857
:104BB000F081FFF773FBC01B4045D6D9E6E773B51C
:104BC00004460021C166FFF769FB266833681A07AF
:104BD000054616D433685B070AD56FF07E43009311
:104BE00000222B464FF480012046FFF7B7FFA0B903
:104BF0002023002084F8693084F8680084F86A3043
:104C00000CE06FF07E4300930A4603464FF4001118
:104C10002046FFF7A3FF0028DCD0032002B070BDC0
:104C200038B5044620B390F8693003F0FF020BB9A1
:104C300080F868202568242384F869302B6823F0E5
:104C400001032B602046FFF7DBFE012810D06B68C4
:104C500023F490436B60AB6823F02A03AB602B68AE
:104C600043F001032B602046BDE83840FFF7A7BFA3
:104C7000012038BDF7B51E4690F86930202B0D464F
:104C8000044611464AD1002D46D0002A44D090F85F
:104C90006830012B42D0012380F868300023C366BE
:104CA000212380F86930FFF7F9FAA4F8501007467D
:104CB000A4F85210B4F8522092B262B900963B4662
:104CC00040212046FFF74AFF98B9202384F8693035
:104CD00084F868000EE0B4F85220013A92B2A4F8C9
:104CE00052203B460096002280212046FFF736FFE7
:104CF00010B1032003B0F0BDA3682268B3F5805F54
:104D000007D123692BB935F8023BC3F30803138598
:104D1000D0E715F8013BFAE70120EBE70220E9E7CD
:104D20002DE9F3411E4690F86A30202B0D460446CB
:104D300011465CD1002D58D0002A56D090F868302A
:104D4000012B54D0012380F8683003684FF0FF3204
:104D50001A620023C366222380F86A30FFF79EFAA6
:104D6000A368A4F85810B3F5805F8046A4F85A10E1
:104D700015D123698BB940F2FF13A4F85C30B4F865
:104D80005C70B4F85A0080B280B9202384F86A308D
:104D900084F8680002B0BDE8F081FF23EDE7002B46
:104DA000EDD12369002BF8D07F23E6E7B4F85A2031
:104DB000013A92B2A4F85A204346009600222021DC
:104DC0002046FFF7CBFEA0B9A2682368B2F5805F4A
:104DD00006D1226922B99B8C3B4025F8023BD0E7E3
:104DE0009B8C3B4005F8013BCBE70120D2E702203A
:104DF000D0E70320CEE700000A4A116808B5034651
:104E000009B9094911601068694603448B4206D903
:104E1000FBF722FB0C2303604FF0FF3008BD13604B
:104E2000FCE700BFD427002020290020002103E058
:104E30000B4B5B58435004310A480B4B42189A42C3
:104E4000F6D30A4A02E0002313600432084B9A4268
:104E5000F9D3AFF30080FBF77DFAFDF7E7F8FEE743
:104E60009C510008000000207C0000207C000020F5
:104E700020290020FEE70000F8B500BFF8BC08BC00
:104E80009E467047F8B500BFF8BC08BC9E46704708
:104E9000010000000000000082800000000000000F
:104EA0008A800000000000800080008000000080F8
:104EB0008B80000000000000010000800000000066
:104EC00081800080000000800980000000000080D8
:104ED0008A000000000000008800000000000000C0
:104EE00009800080000000000A000080000000002F
:104EF0008B800080000000008B000000000000801C
:104F00008980000000000080038000000000008015
:104F1000028000000000008080000000000000808F
:104F20000A800000000000000A00008000000080ED
:104F300081800080000000808080000000000080F0
:104F40000100008000000000088000800000008058
:104F5000ECFB0AFD99FE13FAD5058E051F01CA0068
:104F600055FF6E022906B600C2034EFB3EFABC0591
:104F70003D02D3FA08017F01C3FCB205BEF97EFFF2
:104F800057FDF903DC026002FAF99B0133FFDDF9FA
:104F9000C7048C02D8FDF703F3FAD305E6FEF8F94F
:104FA0000402F8FFC0FE66FDAEF976FB7E00BD058B
:104FB000ABFCA6FFF1FE3E036B0073FA09FF49FC50
:104FC00072FEC1031CFA2BFDC001D7FBA50205FB35
:104FD000B1FBAE012B024B031DFB67030E066900FC
:104FE000A6014B02B10015FFDDFE34FE2606750654
:104FF0000AFF0A0387046DFFF7FCCB05A6FD5F04DB
:10500000CAF9840298FC5D01A201490164FFB5FF61
:10501000310349045B0262022A05FBFA47FA800168
:1050200041FB78FFC204C9FA96FCDC005DFB85F900
:105030005FFB06FA02FB1A031AFAAAFC9AFCDE01CD
:1050400094FFCCFEE403DF03BE034CFAF2055C06DA
:1050500030313233343536373839414243444546AE
:10506000436F6D616E646F2027632720636F7272D8
:10507000656374616D656E746520656A65637574DA
:1050800061646F436F6D616E646F202763272063D7
:105090006F7272656374616D656E746520656A65B3
:1050A00063757461646F00436F6D616E646F202778
:1050B000702720636F7272656374616D656E7465CD
:1050C00020656A6563757461646F00005245454EE2
:1050D00054206D616C6C6F632073756363656564E8
:1050E000656400002E2E2F2E2E2F2E2E2F2E2E2FCB
:1050F0002E2E2F2E2E2F6E65776C69622F6C6962B3
:10510000632F7374646C69622F72616E642E630026
:105110002C2066756E6374696F6E3A200000000083
:10512000617373657274696F6E2022257322206625
:1051300061696C65643A2066696C6520222573227A
:105140002C206C696E65202564257325730A000088
:10515000232D302B20000000686C4C0065666745ED
:105160004647000030313233343536373839414222
:105170004344454600000000303132333435363781
:0C5180003839616263646566000000005D
:08518C00D8B2FF7F0100000012
:04519400F901000815
:04519800D101000839
:10519C00F809002098000020B80E0020980E00207E
:1051AC00B8200020F8120020581C00209820002065
:1051BC002400002000000000D827002040280020F8
:1051CC00A8280020000000000000000000000000E3
:1051DC0000000000000000000000000000000000C3
:1051EC0000000000000000000000000000000000B3
:1051FC0000000000000000000000000000000000A3
:0C520C000000000003000000D827002074
:0400000508004E2D74
:00000001FF
